:100000000C945D000C9485000C9485000C94850084
:100010000C9485000C9485000C9485000C9485004C
:100020000C9485000C9485000C9485000C9485003C
:100030000C9485000C9485000C9485000C9485002C
:100040000C94CE020C9485000C9485000C948500D1
:100050000C9485000C9485000C9485000C9485000C
:100060000C9485000C94850000000008000201003B
:100070000003040700000000000000000000000072
:10008000250028002B0000000000240027002A0083
:10009000040404040404040402020202020203032E
:1000A0000303030301020408102040800102040836
:1000B0001020010204081020D10311241FBECFEF2D
:1000C000D8E0DEBFCDBF11E0A0E0B1E0EEEEF7E09A
:1000D00002C005900D92AE35B107D9F721E0AEE52B
:1000E000B1E001C01D92AF37B207E1F710E0CDE5F6
:1000F000D0E004C02197FE010E94EF03CC35D10768
:10010000C9F70E9418030C94F5030C94000090E0CA
:10011000FC01EC55FF4F249180579F4FFC018491C7
:10012000882399F090E0880F991FFC01EA57FF4F50
:10013000A591B491FC01E458FF4F859194918FB73C
:10014000F894EC91E22BEC938FBF0895AF92BF929D
:10015000CF92DF92EF92FF920F931F93CF93DF9393
:100160006C017B018B01040F151FEB015E01AE18C2
:10017000BF08C017D10759F06991D601ED91FC91E4
:100180000190F081E02DC6010995892B79F7C50111
:10019000DF91CF911F910F91FF90EF90DF90CF9063
:1001A000BF90AF90089590E0FC01E859FF4F249173
:1001B000FC01EC55FF4F3491FC01E057FF4FE491F7
:1001C000EE23C9F0222339F0233001F1A8F42130C5
:1001D00019F1223029F1F0E0EE0FFF1FE458FF4F34
:1001E000A591B4918FB7F894EC91611126C0309528
:1001F0003E233C938FBF08952730A9F02830C9F0E3
:10020000243049F7809180008F7D03C08091800069
:100210008F7780938000DFCF84B58F7784BDDBCF6D
:1002200084B58F7DFBCF8091B0008F778093B00035
:10023000D2CF8091B0008F7DF9CF3E2BDACF3FB780
:10024000F8948091630190916401A0916501B0914F
:10025000660126B5A89B05C02F3F19F00196A11D88
:10026000B11D3FBFBA2FA92F982F8827BC01CD0100
:10027000620F711D811D911D42E0660F771F881F5F
:10028000991F4A95D1F708958F929F92AF92BF928E
:10029000CF92DF92EF92FF924B015C010E941F010F
:1002A0006B017C010E941F016C197D098E099F0959
:1002B000683E734081059105A8F321E0821A9108F8
:1002C000A108B10888EEC80E83E0D81EE11CF11C1D
:1002D00081149104A104B10429F7FF90EF90DF90FD
:1002E000CF90BF90AF909F908F900895089590E029
:1002F00080E00895FC0101900020E9F73197AF01FB
:10030000481B590BBC0187E691E00C94A600CF93E3
:10031000DF93EC0160E08E810E94D30061E08E816A
:100320000E94D30060E08E810E94D3008BE891E0B0
:100330000197F1F7DF91CF910895CF92DF92EF927D
:10034000FF920F931F93CF93DF936C017C0187E0A3
:10035000E80EF11CD0E0C0E0062F10E0B8010C2E32
:1003600002C0759567950A94E2F76170F701819173
:100370007F010E94D3002196C430D10579F7C601D0
:10038000DF91CF911F910F91FF90EF90DF90CF9071
:100390000C948701CF92DF92EF92FF920F931F93FD
:1003A000CF93DF93EC01F62E642F8C810E94D30053
:1003B0008D818F3F19F060E00E94D3000F2D10E077
:1003C0008F8584FF25C06E0187E0C80ED11CF12CFB
:1003D000E12CB8010E2C02C0759567950A94E2F7DE
:1003E0006170F60181916F010E94D300FFEFEF1A57
:1003F000FF0A88E0E816F10461F7CE01DF91CF91A2
:100400001F910F91FF90EF90DF90CF900C94870198
:10041000B80184E0759567958A95E1F7CE010E9451
:100420009D016F2DCE01DF91CF911F910F91FF9014
:10043000EF90DF90CF900C949D0140E0682F87E60D
:1004400091E00C94CA0181E00E941D028BE39FE1C0
:100450000197F1F70895CF93DF93823029F49091BB
:10046000760198609093760180937A0110927B01D7
:1004700080E480937C0180E180937D0180E580931E
:100480007E0180916B010E94870080916C018F3FFB
:1004900011F00E94870080916D010E948700C7E6DD
:1004A000D1E09E01275631408091760184FD0AC03B
:1004B00084E090E02196281739073CF48E810E9451
:1004C0008700EFCF88E090E0F5CF8BE39DE00197C8
:1004D000F1F760E080916B010E94D30060E08091B1
:1004E0006D010E94D30080916C018F3F19F060E094
:1004F0000E94D3008091760184FD34C063E087E6DA
:1005000091E00E949D01CBE4D6E4CE010197F1F782
:1005100063E087E691E00E949D012197F1F763E097
:1005200087E691E00E949D0183E592E00197F1F753
:1005300062E087E691E00E949D01809176018062F1
:100540000E941D0284E0809377018CE00E941D02CE
:100550000E94230282E08093780186E0DF91CF91B0
:100560000C941D0280620E941D028BE496E40197A8
:10057000F1F78091760180620E941D0283E592E08E
:100580000197F1F78091760180620E941D02D5CF1C
:1005900041E00E94CA0181E090E008951F920F920D
:1005A0000FB60F9211242F933F938F939F93AF9386
:1005B000BF9380915F0190916001A0916101B09122
:1005C000620130915E0123E0230F2D3758F501962B
:1005D000A11DB11D20935E0180935F019093600186
:1005E000A0936101B09362018091630190916401D5
:1005F000A0916501B09166010196A11DB11D809386
:10060000630190936401A0936501B0936601BF916B
:10061000AF919F918F913F912F910F900FBE0F90AF
:100620001F90189526E8230F0296A11DB11DD2CF69
:10063000789484B5826084BD84B5816084BD85B5BD
:10064000826085BD85B5816085BD80916E008160C9
:1006500080936E001092810080918100826080936F
:100660008100809181008160809381008091800071
:100670008160809380008091B10084608093B1009C
:100680008091B00081608093B00080917A00846096
:1006900080937A0080917A00826080937A008091C2
:1006A0007A00816080937A0080917A0080688093DC
:1006B0007A001092C10082E00E942B028CE091E04F
:1006C0000E947A0164EF71E080E090E00E944401B2
:1006D000C0E0D0E0E0917A01E23008F05EC0E15085
:1006E000F0E0E959FE4F848980680E941D028DE187
:1006F00091E00E947A0164EF71E080E090E00E9456
:1007000044010E942302E1E080917A018111E0E03E
:10071000E195F0E0E959FE4F848980680E941D024E
:100720008DE291E00E947A0100E110E088E10E94F0
:100730001D0264E670E080E090E00E9444010150F8
:100740001109A1F7E0917A01E33048F5E150F0E0BA
:10075000E959FE4F84898F5F80680E941D0246E13F
:1007600050E067E471E087E691E00E94A60000E1B6
:1007700010E08CE10E941D0264E670E080E090E0F1
:100780000E94440101501109A1F70E942302209701
:1007900009F4A0CF0E9400009DCFE1E0A1CFE2E0EC
:1007A000D6CFE7E6F1E01382128284E091E09183F4
:1007B00080838CE084838FEF85838BE0868385E064
:1007C000878384E0808783E0818782E08287138645
:1007D000148615861686178681E00C942B02EE0F80
:0E07E000FF1F0590F491E02D0994F894FFCFCF
:1007EE0000000000C802A6007701760157696479FF
:1007FE0061202D20313831313132383000202049FE
:10080E006E666F726D6174696B6120200020536596
:10081E006B6F6C61682054696E6767692054656BF5
:10082E006E6F6C6F676900202020202020202042F0
:0E083E00616E64756E6720202020202020004F
:00000001FF
